{
  "_format": "hh-sol-artifact-1",
  "contractName": "SimpleCert",
  "sourceName": "contracts/SimpleCert.sol",
  "abi": [
    {
      "anonymous": false,
      "inputs": [
        {
          "indexed": true,
          "internalType": "string",
          "name": "certificateHash",
          "type": "string"
        },
        {
          "indexed": false,
          "internalType": "uint256",
          "name": "timestamp",
          "type": "uint256"
        }
      ],
      "name": "CertificateMinted",
      "type": "event"
    },
    {
      "inputs": [
        {
          "internalType": "string",
          "name": "",
          "type": "string"
        }
      ],
      "name": "certificates",
      "outputs": [
        {
          "internalType": "uint256",
          "name": "",
          "type": "uint256"
        }
      ],
      "stateMutability": "view",
      "type": "function"
    },
    {
      "inputs": [
        {
          "internalType": "string",
          "name": "_hash",
          "type": "string"
        }
      ],
      "name": "storeHash",
      "outputs": [],
      "stateMutability": "nonpayable",
      "type": "function"
    },
    {
      "inputs": [
        {
          "internalType": "string",
          "name": "_hash",
          "type": "string"
        }
      ],
      "name": "verifyHash",
      "outputs": [
        {
          "internalType": "bool",
          "name": "",
          "type": "bool"
        },
        {
          "internalType": "uint256",
          "name": "",
          "type": "uint256"
        }
      ],
      "stateMutability": "view",
      "type": "function"
    }
  ],
  "bytecode": "0x6080604052348015600f57600080fd5b506105798061001f6000396000f3fe608060405234801561001057600080fd5b50600436106100415760003560e01c806371dc61cb1461004657806386fb2813146100625780638f2b91ea14610093575b600080fd5b610060600480360381019061005b919061037d565b6100c3565b005b61007c6004803603810190610077919061037d565b610196565b60405161008a9291906103fa565b60405180910390f35b6100ad60048036038101906100a8919061037d565b6101f5565b6040516100ba9190610423565b60405180910390f35b600080826040516100d491906104af565b90815260200160405180910390205414610123576040517f08c379a000000000000000000000000000000000000000000000000000000000815260040161011a90610523565b60405180910390fd5b4260008260405161013491906104af565b9081526020016040518091039020819055508060405161015491906104af565b60405180910390207f4f4783a0795634487b76de5355fb908db5ccb644135c20df9ca1d391f00014c44260405161018b9190610423565b60405180910390a250565b600080600080846040516101aa91906104af565b908152602001604051809103902054146101e85760016000846040516101d091906104af565b908152602001604051809103902054915091506101f0565b600080915091505b915091565b6000818051602081018201805184825260208301602085012081835280955050505050506000915090505481565b6000604051905090565b600080fd5b600080fd5b600080fd5b600080fd5b6000601f19601f8301169050919050565b7f4e487b7100000000000000000000000000000000000000000000000000000000600052604160045260246000fd5b61028a82610241565b810181811067ffffffffffffffff821117156102a9576102a8610252565b5b80604052505050565b60006102bc610223565b90506102c88282610281565b919050565b600067ffffffffffffffff8211156102e8576102e7610252565b5b6102f182610241565b9050602081019050919050565b82818337600083830152505050565b600061032061031b846102cd565b6102b2565b90508281526020810184848401111561033c5761033b61023c565b5b6103478482856102fe565b509392505050565b600082601f83011261036457610363610237565b5b813561037484826020860161030d565b91505092915050565b6000602082840312156103935761039261022d565b5b600082013567ffffffffffffffff8111156103b1576103b0610232565b5b6103bd8482850161034f565b91505092915050565b60008115159050919050565b6103db816103c6565b82525050565b6000819050919050565b6103f4816103e1565b82525050565b600060408201905061040f60008301856103d2565b61041c60208301846103eb565b9392505050565b600060208201905061043860008301846103eb565b92915050565b600081519050919050565b600081905092915050565b60005b83811015610472578082015181840152602081019050610457565b60008484015250505050565b60006104898261043e565b6104938185610449565b93506104a3818560208601610454565b80840191505092915050565b60006104bb828461047e565b915081905092915050565b600082825260208201905092915050565b7f536572746966696b617420737564616820616461210000000000000000000000600082015250565b600061050d6015836104c6565b9150610518826104d7565b602082019050919050565b6000602082019050818103600083015261053c81610500565b905091905056fea26469706673582212206ddc356e3c2487ea600a9ecc439decefd1fd2efa3e5ed21956b7db7d93d0bdc464736f6c634300081b0033",
  "linkReferences": {},
  "deployedLinkReferences": {}
}